{
    "contractName": "digicrowd",
    "abi": [
        {
            "inputs": [],
            "stateMutability": "nonpayable",
            "type": "constructor"
        },
        {
            "anonymous": false,
            "inputs": [
                {
                    "indexed": false,
                    "internalType": "address",
                    "name": "",
                    "type": "address"
                },
                {
                    "indexed": false,
                    "internalType": "uint256",
                    "name": "",
                    "type": "uint256"
                }
            ],
            "name": "Received",
            "type": "event"
        },
        {
            "anonymous": false,
            "inputs": [
                {
                    "indexed": false,
                    "internalType": "address",
                    "name": "from",
                    "type": "address"
                },
                {
                    "indexed": false,
                    "internalType": "address",
                    "name": "to",
                    "type": "address"
                },
                {
                    "indexed": false,
                    "internalType": "uint256",
                    "name": "amount",
                    "type": "uint256"
                }
            ],
            "name": "TransferSent",
            "type": "event"
        },
        {
            "inputs": [],
            "name": "baseContract",
            "outputs": [
                {
                    "internalType": "address",
                    "name": "",
                    "type": "address"
                }
            ],
            "stateMutability": "view",
            "type": "function",
            "constant": true
        },
        {
            "inputs": [
                {
                    "internalType": "uint256",
                    "name": "",
                    "type": "uint256"
                }
            ],
            "name": "campaigns",
            "outputs": [
                {
                    "internalType": "address",
                    "name": "owner",
                    "type": "address"
                },
                {
                    "internalType": "string",
                    "name": "title",
                    "type": "string"
                },
                {
                    "internalType": "string",
                    "name": "description",
                    "type": "string"
                },
                {
                    "internalType": "uint256",
                    "name": "target",
                    "type": "uint256"
                },
                {
                    "internalType": "uint256",
                    "name": "deadline",
                    "type": "uint256"
                },
                {
                    "internalType": "uint256",
                    "name": "amountCollected",
                    "type": "uint256"
                },
                {
                    "internalType": "string",
                    "name": "token",
                    "type": "string"
                }
            ],
            "stateMutability": "view",
            "type": "function",
            "constant": true
        },
        {
            "inputs": [],
            "name": "numberOfCampaigns",
            "outputs": [
                {
                    "internalType": "uint256",
                    "name": "",
                    "type": "uint256"
                }
            ],
            "stateMutability": "view",
            "type": "function",
            "constant": true
        },
        {
            "inputs": [
                {
                    "internalType": "address",
                    "name": "_owner",
                    "type": "address"
                },
                {
                    "internalType": "string",
                    "name": "_title",
                    "type": "string"
                },
                {
                    "internalType": "string",
                    "name": "_description",
                    "type": "string"
                },
                {
                    "internalType": "uint256",
                    "name": "_target",
                    "type": "uint256"
                },
                {
                    "internalType": "uint256",
                    "name": "_deadline",
                    "type": "uint256"
                },
                {
                    "internalType": "string[]",
                    "name": "_image",
                    "type": "string[]"
                },
                {
                    "internalType": "string",
                    "name": "_token",
                    "type": "string"
                }
            ],
            "name": "createCampaign",
            "outputs": [
                {
                    "internalType": "uint256",
                    "name": "",
                    "type": "uint256"
                }
            ],
            "stateMutability": "nonpayable",
            "type": "function"
        },
        {
            "inputs": [],
            "name": "getCampaigns",
            "outputs": [
                {
                    "components": [
                        {
                            "internalType": "address",
                            "name": "owner",
                            "type": "address"
                        },
                        {
                            "internalType": "string",
                            "name": "title",
                            "type": "string"
                        },
                        {
                            "internalType": "string",
                            "name": "description",
                            "type": "string"
                        },
                        {
                            "internalType": "uint256",
                            "name": "target",
                            "type": "uint256"
                        },
                        {
                            "internalType": "uint256",
                            "name": "deadline",
                            "type": "uint256"
                        },
                        {
                            "internalType": "uint256",
                            "name": "amountCollected",
                            "type": "uint256"
                        },
                        {
                            "internalType": "string[]",
                            "name": "image",
                            "type": "string[]"
                        },
                        {
                            "internalType": "address[]",
                            "name": "donators",
                            "type": "address[]"
                        },
                        {
                            "internalType": "uint256[]",
                            "name": "donations",
                            "type": "uint256[]"
                        },
                        {
                            "internalType": "string",
                            "name": "token",
                            "type": "string"
                        }
                    ],
                    "internalType": "struct digicrowd.Campaign[]",
                    "name": "",
                    "type": "tuple[]"
                }
            ],
            "stateMutability": "view",
            "type": "function",
            "constant": true
        },
        {
            "inputs": [
                {
                    "internalType": "uint256",
                    "name": "campaignId",
                    "type": "uint256"
                }
            ],
            "name": "getCampaign",
            "outputs": [
                {
                    "components": [
                        {
                            "internalType": "address",
                            "name": "owner",
                            "type": "address"
                        },
                        {
                            "internalType": "string",
                            "name": "title",
                            "type": "string"
                        },
                        {
                            "internalType": "string",
                            "name": "description",
                            "type": "string"
                        },
                        {
                            "internalType": "uint256",
                            "name": "target",
                            "type": "uint256"
                        },
                        {
                            "internalType": "uint256",
                            "name": "deadline",
                            "type": "uint256"
                        },
                        {
                            "internalType": "uint256",
                            "name": "amountCollected",
                            "type": "uint256"
                        },
                        {
                            "internalType": "string[]",
                            "name": "image",
                            "type": "string[]"
                        },
                        {
                            "internalType": "address[]",
                            "name": "donators",
                            "type": "address[]"
                        },
                        {
                            "internalType": "uint256[]",
                            "name": "donations",
                            "type": "uint256[]"
                        },
                        {
                            "internalType": "string",
                            "name": "token",
                            "type": "string"
                        }
                    ],
                    "internalType": "struct digicrowd.Campaign",
                    "name": "",
                    "type": "tuple"
                }
            ],
            "stateMutability": "view",
            "type": "function",
            "constant": true
        },
        {
            "inputs": [
                {
                    "internalType": "address",
                    "name": "account",
                    "type": "address"
                }
            ],
            "name": "balanceOf",
            "outputs": [
                {
                    "internalType": "uint256",
                    "name": "",
                    "type": "uint256"
                }
            ],
            "stateMutability": "view",
            "type": "function",
            "constant": true
        },
        {
            "inputs": [
                {
                    "internalType": "uint256",
                    "name": "_id",
                    "type": "uint256"
                }
            ],
            "name": "donateToCampaign",
            "outputs": [],
            "stateMutability": "payable",
            "type": "function",
            "payable": true
        },
        {
            "inputs": [
                {
                    "internalType": "contract ERC20",
                    "name": "token",
                    "type": "address"
                },
                {
                    "internalType": "uint256",
                    "name": "_id",
                    "type": "uint256"
                },
                {
                    "internalType": "address",
                    "name": "from",
                    "type": "address"
                },
                {
                    "internalType": "uint256",
                    "name": "amount",
                    "type": "uint256"
                }
            ],
            "name": "transferERC20",
            "outputs": [],
            "stateMutability": "nonpayable",
            "type": "function"
        }
    ],
    "bytecode": "0x6080604052600060025534801561001557600080fd5b50306000806101000a81548173ffffffffffffffffffffffffffffffffffffffff021916908373ffffffffffffffffffffffffffffffffffffffff16021790555061278b806100656000396000f3fe6080604052600436106100865760003560e01c80635598f8cc116100595780635598f8cc1461013e5780635b32619c1461017b57806370a08231146101a6578063a6b03633146101e3578063f11d48011461020e57610086565b806307ca140d1461008b578063141961bc146100b6578063353d6f6f146100f957806342a4fda814610122575b600080fd5b34801561009757600080fd5b506100a061024b565b6040516100ad919061149b565b60405180910390f35b3480156100c257600080fd5b506100dd60048036038101906100d891906114f6565b610251565b6040516100f097969594939291906115f4565b60405180910390f35b34801561010557600080fd5b50610120600480360381019061011b91906116e2565b61044b565b005b61013c600480360381019061013791906114f6565b6106d5565b005b34801561014a57600080fd5b50610165600480360381019061016091906114f6565b6108f0565b6040516101729190611ace565b60405180910390f35b34801561018757600080fd5b50610190610d07565b60405161019d9190611af0565b60405180910390f35b3480156101b257600080fd5b506101cd60048036038101906101c89190611b0b565b610d2b565b6040516101da919061149b565b60405180910390f35b3480156101ef57600080fd5b506101f8610d4c565b6040516102059190611cf7565b60405180910390f35b34801561021a57600080fd5b5061023560048036038101906102309190611f34565b6111fc565b604051610242919061149b565b60405180910390f35b60025481565b60016020528060005260406000206000915090508060000160009054906101000a900473ffffffffffffffffffffffffffffffffffffffff169080600101805461029a90612075565b80601f01602080910402602001604051908101604052809291908181526020018280546102c690612075565b80156103135780601f106102e857610100808354040283529160200191610313565b820191906000526020600020905b8154815290600101906020018083116102f657829003601f168201915b50505050509080600201805461032890612075565b80601f016020809104026020016040519081016040528092919081815260200182805461035490612075565b80156103a15780601f10610376576101008083540402835291602001916103a1565b820191906000526020600020905b81548152906001019060200180831161038457829003601f168201915b5050505050908060030154908060040154908060050154908060090180546103c890612075565b80601f01602080910402602001604051908101604052809291908181526020018280546103f490612075565b80156104415780601f1061041657610100808354040283529160200191610441565b820191906000526020600020905b81548152906001019060200180831161042457829003601f168201915b5050505050905087565b600060016000858152602001908152602001600020905060008573ffffffffffffffffffffffffffffffffffffffff166370a08231306040518263ffffffff1660e01b815260040161049d9190611af0565b602060405180830381865afa1580156104ba573d6000803e3d6000fd5b505050506040513d601f19601f820116820180604052508101906104de91906120bb565b905080831115610523576040517f08c379a000000000000000000000000000000000000000000000000000000000815260040161051a90612134565b60405180910390fd5b8573ffffffffffffffffffffffffffffffffffffffff1663a9059cbb8360000160009054906101000a900473ffffffffffffffffffffffffffffffffffffffff16856040518363ffffffff1660e01b8152600401610582929190612154565b6020604051808303816000875af11580156105a1573d6000803e3d6000fd5b505050506040513d601f19601f820116820180604052508101906105c591906121b5565b507ffda3a3e0e1479b43cb1c701f7576187f4c4ad80768d627387e00184302f7d88e848360000160009054906101000a900473ffffffffffffffffffffffffffffffffffffffff168560405161061d939291906121e2565b60405180910390a18282600501546106359190612248565b826005018190555081600701849080600181540180825580915050600190039060005260206000200160009091909190916101000a81548173ffffffffffffffffffffffffffffffffffffffff021916908373ffffffffffffffffffffffffffffffffffffffff16021790555081600801839080600181540180825580915050600190039060005260206000200160009091909190915055505050505050565b600060016000838152602001908152602001600020905060003490508060008054906101000a900473ffffffffffffffffffffffffffffffffffffffff1673ffffffffffffffffffffffffffffffffffffffff1631101561076b576040517f08c379a0000000000000000000000000000000000000000000000000000000008152600401610762906122c8565b60405180910390fd5b60008260000160009054906101000a900473ffffffffffffffffffffffffffffffffffffffff1673ffffffffffffffffffffffffffffffffffffffff16826040516107b590612319565b60006040518083038185875af1925050503d80600081146107f2576040519150601f19603f3d011682016040523d82523d6000602084013e6107f7565b606091505b505090508061083b576040517f08c379a00000000000000000000000000000000000000000000000000000000081526004016108329061237a565b60405180910390fd5b80156108ea578183600501546108519190612248565b836005018190555082600701339080600181540180825580915050600190039060005260206000200160009091909190916101000a81548173ffffffffffffffffffffffffffffffffffffffff021916908373ffffffffffffffffffffffffffffffffffffffff160217905550826008018290806001815401808255809150506001900390600052602060002001600090919091909150555b50505050565b6108f861133f565b60016000838152602001908152602001600020604051806101400160405290816000820160009054906101000a900473ffffffffffffffffffffffffffffffffffffffff1673ffffffffffffffffffffffffffffffffffffffff1673ffffffffffffffffffffffffffffffffffffffff16815260200160018201805461097d90612075565b80601f01602080910402602001604051908101604052809291908181526020018280546109a990612075565b80156109f65780601f106109cb576101008083540402835291602001916109f6565b820191906000526020600020905b8154815290600101906020018083116109d957829003601f168201915b50505050508152602001600282018054610a0f90612075565b80601f0160208091040260200160405190810160405280929190818152602001828054610a3b90612075565b8015610a885780601f10610a5d57610100808354040283529160200191610a88565b820191906000526020600020905b815481529060010190602001808311610a6b57829003601f168201915b5050505050815260200160038201548152602001600482015481526020016005820154815260200160068201805480602002602001604051908101604052809291908181526020016000905b82821015610b80578382906000526020600020018054610af390612075565b80601f0160208091040260200160405190810160405280929190818152602001828054610b1f90612075565b8015610b6c5780601f10610b4157610100808354040283529160200191610b6c565b820191906000526020600020905b815481529060010190602001808311610b4f57829003601f168201915b505050505081526020019060010190610ad4565b50505050815260200160078201805480602002602001604051908101604052809291908181526020018280548015610c0d57602002820191906000526020600020905b8160009054906101000a900473ffffffffffffffffffffffffffffffffffffffff1673ffffffffffffffffffffffffffffffffffffffff1681526020019060010190808311610bc3575b5050505050815260200160088201805480602002602001604051908101604052809291908181526020018280548015610c6557602002820191906000526020600020905b815481526020019060010190808311610c51575b50505050508152602001600982018054610c7e90612075565b80601f0160208091040260200160405190810160405280929190818152602001828054610caa90612075565b8015610cf75780601f10610ccc57610100808354040283529160200191610cf7565b820191906000526020600020905b815481529060010190602001808311610cda57829003601f168201915b5050505050815250509050919050565b60008054906101000a900473ffffffffffffffffffffffffffffffffffffffff1681565b60008173ffffffffffffffffffffffffffffffffffffffff16319050919050565b6060600060025467ffffffffffffffff811115610d6c57610d6b611d23565b5b604051908082528060200260200182016040528015610da557816020015b610d9261133f565b815260200190600190039081610d8a5790505b50905060005b6002548110156111f457600060016000838152602001908152602001600020905080604051806101400160405290816000820160009054906101000a900473ffffffffffffffffffffffffffffffffffffffff1673ffffffffffffffffffffffffffffffffffffffff1673ffffffffffffffffffffffffffffffffffffffff168152602001600182018054610e3f90612075565b80601f0160208091040260200160405190810160405280929190818152602001828054610e6b90612075565b8015610eb85780601f10610e8d57610100808354040283529160200191610eb8565b820191906000526020600020905b815481529060010190602001808311610e9b57829003601f168201915b50505050508152602001600282018054610ed190612075565b80601f0160208091040260200160405190810160405280929190818152602001828054610efd90612075565b8015610f4a5780601f10610f1f57610100808354040283529160200191610f4a565b820191906000526020600020905b815481529060010190602001808311610f2d57829003601f168201915b5050505050815260200160038201548152602001600482015481526020016005820154815260200160068201805480602002602001604051908101604052809291908181526020016000905b82821015611042578382906000526020600020018054610fb590612075565b80601f0160208091040260200160405190810160405280929190818152602001828054610fe190612075565b801561102e5780601f106110035761010080835404028352916020019161102e565b820191906000526020600020905b81548152906001019060200180831161101157829003601f168201915b505050505081526020019060010190610f96565b505050508152602001600782018054806020026020016040519081016040528092919081815260200182805480156110cf57602002820191906000526020600020905b8160009054906101000a900473ffffffffffffffffffffffffffffffffffffffff1673ffffffffffffffffffffffffffffffffffffffff1681526020019060010190808311611085575b505050505081526020016008820180548060200260200160405190810160405280929190818152602001828054801561112757602002820191906000526020600020905b815481526020019060010190808311611113575b5050505050815260200160098201805461114090612075565b80601f016020809104026020016040519081016040528092919081815260200182805461116c90612075565b80156111b95780601f1061118e576101008083540402835291602001916111b9565b820191906000526020600020905b81548152906001019060200180831161119c57829003601f168201915b5050505050815250508383815181106111d5576111d461239a565b5b60200260200101819052505080806111ec906123c9565b915050610dab565b508091505090565b60008060016000600254815260200190815260200160002090504281600401541061125c576040517f08c379a000000000000000000000000000000000000000000000000000000000815260040161125390612483565b60405180910390fd5b888160000160006101000a81548173ffffffffffffffffffffffffffffffffffffffff021916908373ffffffffffffffffffffffffffffffffffffffff160217905550878160010190816112b0919061264f565b50868160020190816112c2919061264f565b5085816003018190555084816004018190555060008160050181905550838160060190805190602001906112f79291906113a8565b5082816009019081611309919061264f565b506002600081548092919061131d906123c9565b919050555060016002546113319190612721565b915050979650505050505050565b604051806101400160405280600073ffffffffffffffffffffffffffffffffffffffff1681526020016060815260200160608152602001600081526020016000815260200160008152602001606081526020016060815260200160608152602001606081525090565b8280548282559060005260206000209081019282156113f0579160200282015b828111156113ef5782518290816113df919061264f565b50916020019190600101906113c8565b5b5090506113fd9190611401565b5090565b5b8082111561142157600081816114189190611425565b50600101611402565b5090565b50805461143190612075565b6000825580601f106114435750611462565b601f0160209004906000526020600020908101906114619190611465565b5b50565b5b8082111561147e576000816000905550600101611466565b5090565b6000819050919050565b61149581611482565b82525050565b60006020820190506114b0600083018461148c565b92915050565b6000604051905090565b600080fd5b600080fd5b6114d381611482565b81146114de57600080fd5b50565b6000813590506114f0816114ca565b92915050565b60006020828403121561150c5761150b6114c0565b5b600061151a848285016114e1565b91505092915050565b600073ffffffffffffffffffffffffffffffffffffffff82169050919050565b600061154e82611523565b9050919050565b61155e81611543565b82525050565b600081519050919050565b600082825260208201905092915050565b60005b8381101561159e578082015181840152602081019050611583565b60008484015250505050565b6000601f19601f8301169050919050565b60006115c682611564565b6115d0818561156f565b93506115e0818560208601611580565b6115e9816115aa565b840191505092915050565b600060e082019050611609600083018a611555565b818103602083015261161b81896115bb565b9050818103604083015261162f81886115bb565b905061163e606083018761148c565b61164b608083018661148c565b61165860a083018561148c565b81810360c083015261166a81846115bb565b905098975050505050505050565b600061168382611543565b9050919050565b61169381611678565b811461169e57600080fd5b50565b6000813590506116b08161168a565b92915050565b6116bf81611543565b81146116ca57600080fd5b50565b6000813590506116dc816116b6565b92915050565b600080600080608085870312156116fc576116fb6114c0565b5b600061170a878288016116a1565b945050602061171b878288016114e1565b935050604061172c878288016116cd565b925050606061173d878288016114e1565b91505092959194509250565b61175281611543565b82525050565b600082825260208201905092915050565b600061177482611564565b61177e8185611758565b935061178e818560208601611580565b611797816115aa565b840191505092915050565b6117ab81611482565b82525050565b600081519050919050565b600082825260208201905092915050565b6000819050602082019050919050565b60006117e98383611769565b905092915050565b6000602082019050919050565b6000611809826117b1565b61181381856117bc565b935083602082028501611825856117cd565b8060005b85811015611861578484038952815161184285826117dd565b945061184d836117f1565b925060208a01995050600181019050611829565b50829750879550505050505092915050565b600081519050919050565b600082825260208201905092915050565b6000819050602082019050919050565b60006118ab8383611749565b60208301905092915050565b6000602082019050919050565b60006118cf82611873565b6118d9818561187e565b93506118e48361188f565b8060005b838110156119155781516118fc888261189f565b9750611907836118b7565b9250506001810190506118e8565b5085935050505092915050565b600081519050919050565b600082825260208201905092915050565b6000819050602082019050919050565b600061195a83836117a2565b60208301905092915050565b6000602082019050919050565b600061197e82611922565b611988818561192d565b93506119938361193e565b8060005b838110156119c45781516119ab888261194e565b97506119b683611966565b925050600181019050611997565b5085935050505092915050565b6000610140830160008301516119ea6000860182611749565b5060208301518482036020860152611a028282611769565b91505060408301518482036040860152611a1c8282611769565b9150506060830151611a3160608601826117a2565b506080830151611a4460808601826117a2565b5060a0830151611a5760a08601826117a2565b5060c083015184820360c0860152611a6f82826117fe565b91505060e083015184820360e0860152611a8982826118c4565b915050610100830151848203610100860152611aa58282611973565b915050610120830151848203610120860152611ac18282611769565b9150508091505092915050565b60006020820190508181036000830152611ae881846119d1565b905092915050565b6000602082019050611b056000830184611555565b92915050565b600060208284031215611b2157611b206114c0565b5b6000611b2f848285016116cd565b91505092915050565b600081519050919050565b600082825260208201905092915050565b6000819050602082019050919050565b600061014083016000830151611b7d6000860182611749565b5060208301518482036020860152611b958282611769565b91505060408301518482036040860152611baf8282611769565b9150506060830151611bc460608601826117a2565b506080830151611bd760808601826117a2565b5060a0830151611bea60a08601826117a2565b5060c083015184820360c0860152611c0282826117fe565b91505060e083015184820360e0860152611c1c82826118c4565b915050610100830151848203610100860152611c388282611973565b915050610120830151848203610120860152611c548282611769565b9150508091505092915050565b6000611c6d8383611b64565b905092915050565b6000602082019050919050565b6000611c8d82611b38565b611c978185611b43565b935083602082028501611ca985611b54565b8060005b85811015611ce55784840389528151611cc68582611c61565b9450611cd183611c75565b925060208a01995050600181019050611cad565b50829750879550505050505092915050565b60006020820190508181036000830152611d118184611c82565b905092915050565b600080fd5b600080fd5b7f4e487b7100000000000000000000000000000000000000000000000000000000600052604160045260246000fd5b611d5b826115aa565b810181811067ffffffffffffffff82111715611d7a57611d79611d23565b5b80604052505050565b6000611d8d6114b6565b9050611d998282611d52565b919050565b600067ffffffffffffffff821115611db957611db8611d23565b5b611dc2826115aa565b9050602081019050919050565b82818337600083830152505050565b6000611df1611dec84611d9e565b611d83565b905082815260208101848484011115611e0d57611e0c611d1e565b5b611e18848285611dcf565b509392505050565b600082601f830112611e3557611e34611d19565b5b8135611e45848260208601611dde565b91505092915050565b600067ffffffffffffffff821115611e6957611e68611d23565b5b602082029050602081019050919050565b600080fd5b6000611e92611e8d84611e4e565b611d83565b90508083825260208201905060208402830185811115611eb557611eb4611e7a565b5b835b81811015611efc57803567ffffffffffffffff811115611eda57611ed9611d19565b5b808601611ee78982611e20565b85526020850194505050602081019050611eb7565b5050509392505050565b600082601f830112611f1b57611f1a611d19565b5b8135611f2b848260208601611e7f565b91505092915050565b600080600080600080600060e0888a031215611f5357611f526114c0565b5b6000611f618a828b016116cd565b975050602088013567ffffffffffffffff811115611f8257611f816114c5565b5b611f8e8a828b01611e20565b965050604088013567ffffffffffffffff811115611faf57611fae6114c5565b5b611fbb8a828b01611e20565b9550506060611fcc8a828b016114e1565b9450506080611fdd8a828b016114e1565b93505060a088013567ffffffffffffffff811115611ffe57611ffd6114c5565b5b61200a8a828b01611f06565b92505060c088013567ffffffffffffffff81111561202b5761202a6114c5565b5b6120378a828b01611e20565b91505092959891949750929550565b7f4e487b7100000000000000000000000000000000000000000000000000000000600052602260045260246000fd5b6000600282049050600182168061208d57607f821691505b6020821081036120a05761209f612046565b5b50919050565b6000815190506120b5816114ca565b92915050565b6000602082840312156120d1576120d06114c0565b5b60006120df848285016120a6565b91505092915050565b7f62616c616e6365206973206c6f77000000000000000000000000000000000000600082015250565b600061211e600e8361156f565b9150612129826120e8565b602082019050919050565b6000602082019050818103600083015261214d81612111565b9050919050565b60006040820190506121696000830185611555565b612176602083018461148c565b9392505050565b60008115159050919050565b6121928161217d565b811461219d57600080fd5b50565b6000815190506121af81612189565b92915050565b6000602082840312156121cb576121ca6114c0565b5b60006121d9848285016121a0565b91505092915050565b60006060820190506121f76000830186611555565b6122046020830185611555565b612211604083018461148c565b949350505050565b7f4e487b7100000000000000000000000000000000000000000000000000000000600052601160045260246000fd5b600061225382611482565b915061225e83611482565b925082820190508082111561227657612275612219565b5b92915050565b7f5472616e73616374696f6e206661696c65642031303621212100000000000000600082015250565b60006122b260198361156f565b91506122bd8261227c565b602082019050919050565b600060208201905081810360008301526122e1816122a5565b9050919050565b600081905092915050565b50565b60006123036000836122e8565b915061230e826122f3565b600082019050919050565b6000612324826122f6565b9150819050919050565b7f5472616e73616374696f6e206661696c65642031313021212100000000000000600082015250565b600061236460198361156f565b915061236f8261232e565b602082019050919050565b6000602082019050818103600083015261239381612357565b9050919050565b7f4e487b7100000000000000000000000000000000000000000000000000000000600052603260045260246000fd5b60006123d482611482565b91507fffffffffffffffffffffffffffffffffffffffffffffffffffffffffffffffff820361240657612405612219565b5b600182019050919050565b7f54686520646561646c696e652073686f756c642062652061206461746520696e60008201527f20746865206675747572652e0000000000000000000000000000000000000000602082015250565b600061246d602c8361156f565b915061247882612411565b604082019050919050565b6000602082019050818103600083015261249c81612460565b9050919050565b60008190508160005260206000209050919050565b60006020601f8301049050919050565b600082821b905092915050565b6000600883026125057fffffffffffffffffffffffffffffffffffffffffffffffffffffffffffffffff826124c8565b61250f86836124c8565b95508019841693508086168417925050509392505050565b6000819050919050565b600061254c61254761254284611482565b612527565b611482565b9050919050565b6000819050919050565b61256683612531565b61257a61257282612553565b8484546124d5565b825550505050565b600090565b61258f612582565b61259a81848461255d565b505050565b5b818110156125be576125b3600082612587565b6001810190506125a0565b5050565b601f821115612603576125d4816124a3565b6125dd846124b8565b810160208510156125ec578190505b6126006125f8856124b8565b83018261259f565b50505b505050565b600082821c905092915050565b600061262660001984600802612608565b1980831691505092915050565b600061263f8383612615565b9150826002028217905092915050565b61265882611564565b67ffffffffffffffff81111561267157612670611d23565b5b61267b8254612075565b6126868282856125c2565b600060209050601f8311600181146126b957600084156126a7578287015190505b6126b18582612633565b865550612719565b601f1984166126c7866124a3565b60005b828110156126ef578489015182556001820191506020850194506020810190506126ca565b8683101561270c5784890151612708601f891682612615565b8355505b6001600288020188555050505b505050505050565b600061272c82611482565b915061273783611482565b925082820390508181111561274f5761274e612219565b5b9291505056fea2646970667358221220779b17d1a7f00ddf66bf6f71db89b0fd966be1a5b2432519aaac11b5166513e464736f6c63430008130033",
    "immutableReferences": {},
    "source": "// SPDX-License-Identifier: MIT\r\n\r\npragma solidity ^0.8.9;\r\nimport \"@openzeppelin/contracts/token/ERC20/ERC20.sol\";\r\n\r\n//This contract deals with transfer of eth coins and not tokens!!!\r\ncontract digicrowd {\r\n    address public baseContract;\r\n\r\n    //Executes when deployed\r\n    constructor() {\r\n        baseContract = address(this);\r\n    }\r\n\r\n    //Structure of the block\r\n    struct Campaign {\r\n        address owner;\r\n        string title;\r\n        string description;\r\n        uint256 target;\r\n        uint256 deadline;\r\n        uint256 amountCollected;\r\n        string[]  image;\r\n        address[] donators;\r\n        uint256[] donations;\r\n        string  token;\r\n    }\r\n\r\n    mapping(uint256 => Campaign) public campaigns; //takes Id of the campaign and returns the details of the campaign\r\n\r\n    //When deployed, Initialized to 0\r\n    uint256 public numberOfCampaigns = 0;\r\n\r\n    //To create campaign\r\n    function createCampaign(\r\n        address _owner,\r\n        string memory _title,\r\n        string memory _description,\r\n        uint256 _target,\r\n        uint256 _deadline,\r\n        string[] memory _image,\r\n        string memory _token\r\n    ) public returns (uint256) {\r\n        Campaign storage campaign = campaigns[numberOfCampaigns];\r\n\r\n        // is everything okay?\r\n        require(\r\n            campaign.deadline < block.timestamp,\r\n            \"The deadline should be a date in the future.\"\r\n        );\r\n\r\n        campaign.owner = _owner;\r\n        campaign.title = _title;\r\n        campaign.description = _description;\r\n        campaign.target = _target;\r\n        campaign.deadline = _deadline;\r\n        campaign.amountCollected = 0;\r\n        campaign.image = _image;\r\n        campaign.token = _token;\r\n        numberOfCampaigns++;\r\n\r\n        return numberOfCampaigns - 1;\r\n    }\r\n\r\n    //returns all campaigns\r\n    function getCampaigns() public view returns (Campaign[] memory) {\r\n        Campaign[] memory allCampaigns = new Campaign[](numberOfCampaigns);\r\n\r\n        for (uint256 i = 0; i < numberOfCampaigns; i++) {\r\n            Campaign storage item = campaigns[i];\r\n\r\n            allCampaigns[i] = item;\r\n        }\r\n\r\n        return allCampaigns;\r\n    }\r\n\r\n    //returns a specific campaign\r\n    function getCampaign(uint256 campaignId)\r\n        public\r\n        view\r\n        returns (Campaign memory)\r\n    {\r\n        return campaigns[campaignId];\r\n    }\r\n\r\n    // To check balance of an address\r\n    function balanceOf(address account) public view returns (uint256) {\r\n        return account.balance;\r\n    }\r\n\r\n    // Contract transfers the funds to fundraiser\r\n    function donateToCampaign(\r\n        uint256 _id\r\n    ) public payable {\r\n        Campaign storage campaign = campaigns[_id];\r\n        uint256 _amount = msg.value;\r\n        require(baseContract.balance >= _amount, \"Transaction failed 106!!!\");\r\n\r\n        (bool sent, ) = payable(campaign.owner).call{value: _amount}(\"\");\r\n\r\n        require(sent, \"Transaction failed 110!!!\");\r\n        if(sent){\r\n        campaign.amountCollected = campaign.amountCollected + _amount;\r\n        campaign.donators.push(msg.sender);\r\n\r\n        campaign.donations.push(_amount);\r\n        }\r\n    }\r\n\r\n    // Investor transfers to contract\r\n    event Received(address, uint256);\r\n\r\n    event TransferSent( address from, address to, uint256 amount);\r\n\r\n    function transferERC20(ERC20 token,uint256 _id,address from, uint256 amount) public {\r\n         Campaign storage campaign = campaigns[_id];\r\n\r\n        // require(msg.sender === owner, \"Only owner can withdraw funds\");\r\n        uint256 erc20balance = token.balanceOf(address(this));\r\n        require(amount <= erc20balance, \"balance is low\");\r\n        token.transfer(campaign.owner, amount);\r\n        emit TransferSent(from, campaign.owner, amount);\r\n        campaign.amountCollected = campaign.amountCollected + amount;\r\n        campaign.donators.push(from);\r\n\r\n        campaign.donations.push(amount);\r\n    }\r\n}\r\n",
    "sourcePath": "D:\\Reenav\\Crowdfunding_Using_Blockchain\\Smart Contract\\truffleDigiCrowd\\contracts\\Digicrowd.sol",
    "compiler": {
        "name": "solc",
        "version": "0.8.19+commit.7dd6d404.Emscripten.clang"
    },
    "schemaVersion": "3.4.13",
    "updatedAt": "2023-04-04T06:05:42.986Z",
    "networkType": "ethereum",
    "devdoc": {
        "kind": "dev",
        "methods": {},
        "version": 1
    },
    "userdoc": {
        "kind": "user",
        "methods": {},
        "version": 1
    }
}